{
  "_format": "hh-sol-artifact-1",
  "contractName": "NFTMarketplace",
  "sourceName": "contracts/NFTMarketplace.sol",
  "abi": [
    {
      "anonymous": false,
      "inputs": [
        {
          "indexed": true,
          "internalType": "uint256",
          "name": "itemId",
          "type": "uint256"
        },
        {
          "indexed": true,
          "internalType": "address",
          "name": "nftContract",
          "type": "address"
        },
        {
          "indexed": true,
          "internalType": "uint256",
          "name": "tokenId",
          "type": "uint256"
        },
        {
          "indexed": false,
          "internalType": "address",
          "name": "seller",
          "type": "address"
        },
        {
          "indexed": false,
          "internalType": "address",
          "name": "owner",
          "type": "address"
        },
        {
          "indexed": false,
          "internalType": "uint256",
          "name": "price",
          "type": "uint256"
        },
        {
          "indexed": false,
          "internalType": "uint256",
          "name": "distributionPrice",
          "type": "uint256"
        },
        {
          "indexed": false,
          "internalType": "bool",
          "name": "sold",
          "type": "bool"
        }
      ],
      "name": "ItemCreated",
      "type": "event"
    },
    {
      "anonymous": false,
      "inputs": [
        {
          "indexed": false,
          "internalType": "address",
          "name": "owner",
          "type": "address"
        },
        {
          "indexed": false,
          "internalType": "uint256",
          "name": "tokenId",
          "type": "uint256"
        },
        {
          "indexed": false,
          "internalType": "address[]",
          "name": "owners",
          "type": "address[]"
        }
      ],
      "name": "OwnerAdded",
      "type": "event"
    },
    {
      "inputs": [
        {
          "internalType": "address",
          "name": "nftContract",
          "type": "address"
        },
        {
          "internalType": "uint256",
          "name": "tokenId",
          "type": "uint256"
        }
      ],
      "name": "addNFTToMarket",
      "outputs": [],
      "stateMutability": "nonpayable",
      "type": "function"
    },
    {
      "inputs": [
        {
          "internalType": "uint256",
          "name": "tokenId",
          "type": "uint256"
        }
      ],
      "name": "addOwner",
      "outputs": [],
      "stateMutability": "payable",
      "type": "function"
    },
    {
      "inputs": [
        {
          "internalType": "address",
          "name": "nftContract",
          "type": "address"
        },
        {
          "internalType": "uint256",
          "name": "tokenId",
          "type": "uint256"
        },
        {
          "internalType": "uint256",
          "name": "distributionPrice",
          "type": "uint256"
        },
        {
          "internalType": "uint256",
          "name": "price",
          "type": "uint256"
        }
      ],
      "name": "createItem",
      "outputs": [],
      "stateMutability": "payable",
      "type": "function"
    },
    {
      "inputs": [],
      "name": "fetchItems",
      "outputs": [
        {
          "components": [
            {
              "internalType": "uint256",
              "name": "itemId",
              "type": "uint256"
            },
            {
              "internalType": "address",
              "name": "NFTContract",
              "type": "address"
            },
            {
              "internalType": "uint256",
              "name": "tokenId",
              "type": "uint256"
            },
            {
              "internalType": "address payable",
              "name": "owner",
              "type": "address"
            },
            {
              "internalType": "address payable",
              "name": "seller",
              "type": "address"
            },
            {
              "internalType": "uint256",
              "name": "price",
              "type": "uint256"
            },
            {
              "internalType": "uint256",
              "name": "distributionPrice",
              "type": "uint256"
            },
            {
              "internalType": "bool",
              "name": "sold",
              "type": "bool"
            }
          ],
          "internalType": "struct NFTMarketplace.Item[]",
          "name": "",
          "type": "tuple[]"
        }
      ],
      "stateMutability": "view",
      "type": "function"
    },
    {
      "inputs": [],
      "name": "fetchItemsCreated",
      "outputs": [
        {
          "components": [
            {
              "internalType": "uint256",
              "name": "itemId",
              "type": "uint256"
            },
            {
              "internalType": "address",
              "name": "NFTContract",
              "type": "address"
            },
            {
              "internalType": "uint256",
              "name": "tokenId",
              "type": "uint256"
            },
            {
              "internalType": "address payable",
              "name": "owner",
              "type": "address"
            },
            {
              "internalType": "address payable",
              "name": "seller",
              "type": "address"
            },
            {
              "internalType": "uint256",
              "name": "price",
              "type": "uint256"
            },
            {
              "internalType": "uint256",
              "name": "distributionPrice",
              "type": "uint256"
            },
            {
              "internalType": "bool",
              "name": "sold",
              "type": "bool"
            }
          ],
          "internalType": "struct NFTMarketplace.Item[]",
          "name": "",
          "type": "tuple[]"
        }
      ],
      "stateMutability": "view",
      "type": "function"
    },
    {
      "inputs": [],
      "name": "fetchNFTs",
      "outputs": [
        {
          "components": [
            {
              "internalType": "uint256",
              "name": "itemId",
              "type": "uint256"
            },
            {
              "internalType": "address",
              "name": "NFTContract",
              "type": "address"
            },
            {
              "internalType": "uint256",
              "name": "tokenId",
              "type": "uint256"
            },
            {
              "internalType": "address payable",
              "name": "owner",
              "type": "address"
            },
            {
              "internalType": "address payable",
              "name": "seller",
              "type": "address"
            },
            {
              "internalType": "uint256",
              "name": "price",
              "type": "uint256"
            },
            {
              "internalType": "uint256",
              "name": "distributionPrice",
              "type": "uint256"
            },
            {
              "internalType": "bool",
              "name": "sold",
              "type": "bool"
            }
          ],
          "internalType": "struct NFTMarketplace.Item[]",
          "name": "",
          "type": "tuple[]"
        }
      ],
      "stateMutability": "view",
      "type": "function"
    },
    {
      "inputs": [
        {
          "internalType": "uint256",
          "name": "itemId",
          "type": "uint256"
        }
      ],
      "name": "getNFTFraction",
      "outputs": [],
      "stateMutability": "payable",
      "type": "function"
    },
    {
      "inputs": [
        {
          "internalType": "uint256",
          "name": "tokenId",
          "type": "uint256"
        }
      ],
      "name": "getOwnerCount",
      "outputs": [
        {
          "internalType": "uint256",
          "name": "",
          "type": "uint256"
        }
      ],
      "stateMutability": "view",
      "type": "function"
    },
    {
      "inputs": [
        {
          "internalType": "uint256",
          "name": "tokenId",
          "type": "uint256"
        }
      ],
      "name": "getOwners",
      "outputs": [
        {
          "internalType": "address[]",
          "name": "",
          "type": "address[]"
        }
      ],
      "stateMutability": "view",
      "type": "function"
    },
    {
      "inputs": [
        {
          "internalType": "address",
          "name": "nftContract",
          "type": "address"
        },
        {
          "internalType": "uint256",
          "name": "itemId",
          "type": "uint256"
        }
      ],
      "name": "sellItem",
      "outputs": [],
      "stateMutability": "payable",
      "type": "function"
    },
    {
      "inputs": [
        {
          "internalType": "address",
          "name": "nftContract",
          "type": "address"
        },
        {
          "internalType": "uint256",
          "name": "tokenId",
          "type": "uint256"
        }
      ],
      "name": "sellNFT",
      "outputs": [],
      "stateMutability": "payable",
      "type": "function"
    }
  ],
  "bytecode": "0x608060405234801561001057600080fd5b5060016003819055506122ab806100286000396000f3fe60806040526004361061009c5760003560e01c80638003e362116100645780638003e3621461016a578063ad78ba7b14610186578063d5356ffa146101b1578063ee4525d5146101cd578063f064c32e1461020a578063f6176e64146102355761009c565b8063096c5e1a146100a157806313f66c9a146100bd5780634c001883146100fa578063544807ac1461012357806378f04baf1461013f575b600080fd5b6100bb60048036038101906100b691906118e3565b610251565b005b3480156100c957600080fd5b506100e460048036038101906100df9190611982565b6103bd565b6040516100f19190611f66565b60405180910390f35b34801561010657600080fd5b50610121600480360381019061011c91906118e3565b6103da565b005b61013d600480360381019061013891906118e3565b61053b565b005b34801561014b57600080fd5b50610154610817565b6040516101619190611ea4565b60405180910390f35b610184600480360381019061017f9190611982565b610bb4565b005b34801561019257600080fd5b5061019b610c84565b6040516101a89190611ea4565b60405180910390f35b6101cb60048036038101906101c69190611982565b610f52565b005b3480156101d957600080fd5b506101f460048036038101906101ef9190611982565b6110bd565b6040516102019190611e82565b60405180910390f35b34801561021657600080fd5b5061021f61115d565b60405161022c9190611ea4565b60405180910390f35b61024f600480360381019061024a919061191f565b6114fa565b005b60026003541415610297576040517f08c379a000000000000000000000000000000000000000000000000000000000815260040161028e90611f46565b60405180910390fd5b6002600381905550600060076000838152602001908152602001600020600501549050600060076000848152602001908152602001600020600201549050813414610317576040517f08c379a000000000000000000000000000000000000000000000000000000000815260040161030e90611f26565b60405180910390fd5b610321848261053b565b336007600085815260200190815260200160002060030160006101000a81548173ffffffffffffffffffffffffffffffffffffffff021916908373ffffffffffffffffffffffffffffffffffffffff16021790555060016007600085815260200190815260200160002060070160006101000a81548160ff0219169083151502179055506103af600561180c565b505060016003819055505050565b600060016000838152602001908152602001600020549050919050565b336002600083815260200190815260200160002060006101000a81548173ffffffffffffffffffffffffffffffffffffffff021916908373ffffffffffffffffffffffffffffffffffffffff160217905550600080828152602001908152602001600020339080600181540180825580915050600190039060005260206000200160009091909190916101000a81548173ffffffffffffffffffffffffffffffffffffffff021916908373ffffffffffffffffffffffffffffffffffffffff1602179055506001600082815260200190815260200160002060008154809291906104c390612180565b91905055508173ffffffffffffffffffffffffffffffffffffffff166323b872dd3330846040518463ffffffff1660e01b815260040161050593929190611dba565b600060405180830381600087803b15801561051f57600080fd5b505af1158015610533573d6000803e3d6000fd5b505050505050565b60008060008381526020019081526020016000208054806020026020016040519081016040528092919081815260200182805480156105cf57602002820191906000526020600020905b8160009054906101000a900473ffffffffffffffffffffffffffffffffffffffff1673ffffffffffffffffffffffffffffffffffffffff1681526020019060010190808311610585575b5050505050905060006001806000858152602001908152602001600020546105f79190612031565b9050600081346106079190612087565b905060005b60018361061991906120b8565b81101561073557600084828151811061065b577f4e487b7100000000000000000000000000000000000000000000000000000000600052603260045260246000fd5b602002602001015190508073ffffffffffffffffffffffffffffffffffffffff166108fc849081150290604051600060405180830381858888f193505050501580156106ab573d6000803e3d6000fd5b5060008583815181106106e7577f4e487b7100000000000000000000000000000000000000000000000000000000600052603260045260246000fd5b602002602001019073ffffffffffffffffffffffffffffffffffffffff16908173ffffffffffffffffffffffffffffffffffffffff168152505050808061072d90612180565b91505061060c565b508473ffffffffffffffffffffffffffffffffffffffff166323b872dd3033876040518463ffffffff1660e01b815260040161077393929190611dba565b600060405180830381600087803b15801561078d57600080fd5b505af11580156107a1573d6000803e3d6000fd5b5050505060006001600086815260200190815260200160002081905550336002600086815260200190815260200160002060006101000a81548173ffffffffffffffffffffffffffffffffffffffff021916908373ffffffffffffffffffffffffffffffffffffffff1602179055505050505050565b606060006108256004611822565b905060008060005b838110156108cd573373ffffffffffffffffffffffffffffffffffffffff166007600060018461085d9190612031565b815260200190815260200160002060030160009054906101000a900473ffffffffffffffffffffffffffffffffffffffff1673ffffffffffffffffffffffffffffffffffffffff1614156108ba5782806108b690612180565b9350505b80806108c590612180565b91505061082d565b5060008267ffffffffffffffff811115610910577f4e487b7100000000000000000000000000000000000000000000000000000000600052604160045260246000fd5b60405190808252806020026020018201604052801561094957816020015b610936611830565b81526020019060019003908161092e5790505b50905060005b84811015610ba9573373ffffffffffffffffffffffffffffffffffffffff166007600060018461097f9190612031565b815260200190815260200160002060030160009054906101000a900473ffffffffffffffffffffffffffffffffffffffff1673ffffffffffffffffffffffffffffffffffffffff161415610b96576000600760006001846109e09190612031565b815260200190815260200160002090508060405180610100016040529081600082015481526020016001820160009054906101000a900473ffffffffffffffffffffffffffffffffffffffff1673ffffffffffffffffffffffffffffffffffffffff1673ffffffffffffffffffffffffffffffffffffffff168152602001600282015481526020016003820160009054906101000a900473ffffffffffffffffffffffffffffffffffffffff1673ffffffffffffffffffffffffffffffffffffffff1673ffffffffffffffffffffffffffffffffffffffff1681526020016004820160009054906101000a900473ffffffffffffffffffffffffffffffffffffffff1673ffffffffffffffffffffffffffffffffffffffff1673ffffffffffffffffffffffffffffffffffffffff16815260200160058201548152602001600682015481526020016007820160009054906101000a900460ff161515151581525050838581518110610b7b577f4e487b7100000000000000000000000000000000000000000000000000000000600052603260045260246000fd5b60200260200101819052508380610b9190612180565b945050505b8080610ba190612180565b91505061094f565b508094505050505090565b60026003541415610bfa576040517f08c379a0000000000000000000000000000000000000000000000000000000008152600401610bf190611f46565b60405180910390fd5b600260038190555034600760008381526020019081526020016000206006015414610c5a576040517f08c379a0000000000000000000000000000000000000000000000000000000008152600401610c5190611ee6565b60405180910390fd5b610c796007600083815260200190815260200160002060020154610f52565b600160038190555050565b60606000610c926004611822565b90506000610ca06005611822565b82610cab91906120b8565b90506000808267ffffffffffffffff811115610cf0577f4e487b7100000000000000000000000000000000000000000000000000000000600052604160045260246000fd5b604051908082528060200260200182016040528015610d2957816020015b610d16611830565b815260200190600190039081610d0e5790505b50905060005b84811015610f475760076000600183610d489190612031565b815260200190815260200160002060070160009054906101000a900460ff16610f3457600060076000600184610d7e9190612031565b815260200190815260200160002090508060405180610100016040529081600082015481526020016001820160009054906101000a900473ffffffffffffffffffffffffffffffffffffffff1673ffffffffffffffffffffffffffffffffffffffff1673ffffffffffffffffffffffffffffffffffffffff168152602001600282015481526020016003820160009054906101000a900473ffffffffffffffffffffffffffffffffffffffff1673ffffffffffffffffffffffffffffffffffffffff1673ffffffffffffffffffffffffffffffffffffffff1681526020016004820160009054906101000a900473ffffffffffffffffffffffffffffffffffffffff1673ffffffffffffffffffffffffffffffffffffffff1673ffffffffffffffffffffffffffffffffffffffff16815260200160058201548152602001600682015481526020016007820160009054906101000a900460ff161515151581525050838581518110610f19577f4e487b7100000000000000000000000000000000000000000000000000000000600052603260045260246000fd5b60200260200101819052508380610f2f90612180565b945050505b8080610f3f90612180565b915050610d2f565b508094505050505090565b60006002600083815260200190815260200160002060009054906101000a900473ffffffffffffffffffffffffffffffffffffffff1690508073ffffffffffffffffffffffffffffffffffffffff166108fc349081150290604051600060405180830381858888f19350505050158015610fd0573d6000803e3d6000fd5b50600080838152602001908152602001600020339080600181540180825580915050600190039060005260206000200160009091909190916101000a81548173ffffffffffffffffffffffffffffffffffffffff021916908373ffffffffffffffffffffffffffffffffffffffff16021790555060016000838152602001908152602001600020600081548092919061106890612180565b91905055507f275b01b1807d7f1be6037d8d26b8b7d4c078250dc2c2494519f2b656f7dee0ab33836000808681526020019081526020016000206040516110b193929190611e44565b60405180910390a15050565b606060008083815260200190815260200160002080548060200260200160405190810160405280929190818152602001828054801561115157602002820191906000526020600020905b8160009054906101000a900473ffffffffffffffffffffffffffffffffffffffff1673ffffffffffffffffffffffffffffffffffffffff1681526020019060010190808311611107575b50505050509050919050565b6060600061116b6004611822565b905060008060005b83811015611213573373ffffffffffffffffffffffffffffffffffffffff16600760006001846111a39190612031565b815260200190815260200160002060040160009054906101000a900473ffffffffffffffffffffffffffffffffffffffff1673ffffffffffffffffffffffffffffffffffffffff1614156112005782806111fc90612180565b9350505b808061120b90612180565b915050611173565b5060008267ffffffffffffffff811115611256577f4e487b7100000000000000000000000000000000000000000000000000000000600052604160045260246000fd5b60405190808252806020026020018201604052801561128f57816020015b61127c611830565b8152602001906001900390816112745790505b50905060005b848110156114ef573373ffffffffffffffffffffffffffffffffffffffff16600760006001846112c59190612031565b815260200190815260200160002060040160009054906101000a900473ffffffffffffffffffffffffffffffffffffffff1673ffffffffffffffffffffffffffffffffffffffff1614156114dc576000600760006001846113269190612031565b815260200190815260200160002090508060405180610100016040529081600082015481526020016001820160009054906101000a900473ffffffffffffffffffffffffffffffffffffffff1673ffffffffffffffffffffffffffffffffffffffff1673ffffffffffffffffffffffffffffffffffffffff168152602001600282015481526020016003820160009054906101000a900473ffffffffffffffffffffffffffffffffffffffff1673ffffffffffffffffffffffffffffffffffffffff1673ffffffffffffffffffffffffffffffffffffffff1681526020016004820160009054906101000a900473ffffffffffffffffffffffffffffffffffffffff1673ffffffffffffffffffffffffffffffffffffffff1673ffffffffffffffffffffffffffffffffffffffff16815260200160058201548152602001600682015481526020016007820160009054906101000a900460ff1615151515815250508385815181106114c1577f4e487b7100000000000000000000000000000000000000000000000000000000600052603260045260246000fd5b602002602001018190525083806114d790612180565b945050505b80806114e790612180565b915050611295565b508094505050505090565b60026003541415611540576040517f08c379a000000000000000000000000000000000000000000000000000000000815260040161153790611f46565b60405180910390fd5b60026003819055506000811161158b576040517f08c379a000000000000000000000000000000000000000000000000000000000815260040161158290611f06565b60405180910390fd5b600082116115ce576040517f08c379a00000000000000000000000000000000000000000000000000000000081526004016115c590611ec6565b60405180910390fd5b6115d8600461180c565b60006115e46004611822565b90506040518061010001604052808281526020018673ffffffffffffffffffffffffffffffffffffffff1681526020018581526020013373ffffffffffffffffffffffffffffffffffffffff168152602001600073ffffffffffffffffffffffffffffffffffffffff16815260200183815260200184815260200160001515815250600760008381526020019081526020016000206000820151816000015560208201518160010160006101000a81548173ffffffffffffffffffffffffffffffffffffffff021916908373ffffffffffffffffffffffffffffffffffffffff1602179055506040820151816002015560608201518160030160006101000a81548173ffffffffffffffffffffffffffffffffffffffff021916908373ffffffffffffffffffffffffffffffffffffffff16021790555060808201518160040160006101000a81548173ffffffffffffffffffffffffffffffffffffffff021916908373ffffffffffffffffffffffffffffffffffffffff16021790555060a0820151816005015560c0820151816006015560e08201518160070160006101000a81548160ff0219169083151502179055509050506117a385856103da565b838573ffffffffffffffffffffffffffffffffffffffff16827f978c4df9619213f3affab3fac0414c96e1fe1471bf25bd2ce0f9e816e1b934a4336000878960006040516117f5959493929190611df1565b60405180910390a450600160038190555050505050565b6001816000016000828254019250508190555050565b600081600001549050919050565b60405180610100016040528060008152602001600073ffffffffffffffffffffffffffffffffffffffff16815260200160008152602001600073ffffffffffffffffffffffffffffffffffffffff168152602001600073ffffffffffffffffffffffffffffffffffffffff16815260200160008152602001600081526020016000151581525090565b6000813590506118c881612247565b92915050565b6000813590506118dd8161225e565b92915050565b600080604083850312156118f657600080fd5b6000611904858286016118b9565b9250506020611915858286016118ce565b9150509250929050565b6000806000806080858703121561193557600080fd5b6000611943878288016118b9565b9450506020611954878288016118ce565b9350506040611965878288016118ce565b9250506060611976878288016118ce565b91505092959194509250565b60006020828403121561199457600080fd5b60006119a2848285016118ce565b91505092915050565b60006119b783836119eb565b60208301905092915050565b60006119cf8383611cfa565b6101008301905092915050565b6119e58161211e565b82525050565b6119f48161210c565b82525050565b611a038161210c565b82525050565b6000611a1482611fb6565b611a1e8185611ffe565b9350611a2983611f81565b8060005b83811015611a5a578151611a4188826119ab565b9750611a4c83611fd7565b925050600181019050611a2d565b5085935050505092915050565b6000611a7282611fc1565b611a7c8185611ffe565b9350611a8783611f91565b8060005b83811015611abf57611a9c82612227565b611aa688826119ab565b9750611ab183611fe4565b925050600181019050611a8b565b5085935050505092915050565b6000611ad782611fcc565b611ae1818561200f565b9350611aec83611fa6565b8060005b83811015611b1d578151611b0488826119c3565b9750611b0f83611ff1565b925050600181019050611af0565b5085935050505092915050565b611b3381612130565b82525050565b611b4281612130565b82525050565b6000611b55602a83612020565b91507f446973747269627574696f6e2050726963652073686f756c642061746c65617360008301527f74206265203120776569000000000000000000000000000000000000000000006020830152604082019050919050565b6000611bbb603183612020565b91507f506c65617365206d617463682074686520616d6f756e7420726571756972656460008301527f20746f20676574207468652073686172650000000000000000000000000000006020830152604082019050919050565b6000611c21601d83612020565b91507f50726963652073686f756c642061746c656173742062652031207765690000006000830152602082019050919050565b6000611c61602e83612020565b91507f50726963652073686f756c6420626520657175616c20746f207468652070726960008301527f6365206f6620746865206974656d0000000000000000000000000000000000006020830152604082019050919050565b6000611cc7601f83612020565b91507f5265656e7472616e637947756172643a207265656e7472616e742063616c6c006000830152602082019050919050565b61010082016000820151611d116000850182611d9c565b506020820151611d2460208501826119eb565b506040820151611d376040850182611d9c565b506060820151611d4a60608501826119dc565b506080820151611d5d60808501826119dc565b5060a0820151611d7060a0850182611d9c565b5060c0820151611d8360c0850182611d9c565b5060e0820151611d9660e0850182611b2a565b50505050565b611da58161215c565b82525050565b611db48161215c565b82525050565b6000606082019050611dcf60008301866119fa565b611ddc60208301856119fa565b611de96040830184611dab565b949350505050565b600060a082019050611e0660008301886119fa565b611e1360208301876119fa565b611e206040830186611dab565b611e2d6060830185611dab565b611e3a6080830184611b39565b9695505050505050565b6000606082019050611e5960008301866119fa565b611e666020830185611dab565b8181036040830152611e788184611a67565b9050949350505050565b60006020820190508181036000830152611e9c8184611a09565b905092915050565b60006020820190508181036000830152611ebe8184611acc565b905092915050565b60006020820190508181036000830152611edf81611b48565b9050919050565b60006020820190508181036000830152611eff81611bae565b9050919050565b60006020820190508181036000830152611f1f81611c14565b9050919050565b60006020820190508181036000830152611f3f81611c54565b9050919050565b60006020820190508181036000830152611f5f81611cba565b9050919050565b6000602082019050611f7b6000830184611dab565b92915050565b6000819050602082019050919050565b60008190508160005260206000209050919050565b6000819050602082019050919050565b600081519050919050565b600081549050919050565b600081519050919050565b6000602082019050919050565b6000600182019050919050565b6000602082019050919050565b600082825260208201905092915050565b600082825260208201905092915050565b600082825260208201905092915050565b600061203c8261215c565b91506120478361215c565b9250827fffffffffffffffffffffffffffffffffffffffffffffffffffffffffffffffff0382111561207c5761207b6121c9565b5b828201905092915050565b60006120928261215c565b915061209d8361215c565b9250826120ad576120ac6121f8565b5b828204905092915050565b60006120c38261215c565b91506120ce8361215c565b9250828210156120e1576120e06121c9565b5b828203905092915050565b600073ffffffffffffffffffffffffffffffffffffffff82169050919050565b60006121178261213c565b9050919050565b60006121298261213c565b9050919050565b60008115159050919050565b600073ffffffffffffffffffffffffffffffffffffffff82169050919050565b6000819050919050565b60006121796121748361223a565b6120ec565b9050919050565b600061218b8261215c565b91507fffffffffffffffffffffffffffffffffffffffffffffffffffffffffffffffff8214156121be576121bd6121c9565b5b600182019050919050565b7f4e487b7100000000000000000000000000000000000000000000000000000000600052601160045260246000fd5b7f4e487b7100000000000000000000000000000000000000000000000000000000600052601260045260246000fd5b60006122338254612166565b9050919050565b60008160001c9050919050565b6122508161210c565b811461225b57600080fd5b50565b6122678161215c565b811461227257600080fd5b5056fea2646970667358221220439de4ef8098ec1d90b71aa503d290e62b26b3a7d32f7a614b494a10485978fc64736f6c63430008000033",
  "linkReferences": {},
  "deployedLinkReferences": {}
}