{
  "_format": "hh-sol-artifact-1",
  "contractName": "NFTFractionsManager",
  "sourceName": "contracts/NFTFractionsManager.sol",
  "abi": [
    {
      "anonymous": false,
      "inputs": [
        {
          "indexed": false,
          "internalType": "address",
          "name": "owner",
          "type": "address"
        },
        {
          "indexed": false,
          "internalType": "uint256",
          "name": "tokenId",
          "type": "uint256"
        },
        {
          "indexed": false,
          "internalType": "address[]",
          "name": "owners",
          "type": "address[]"
        }
      ],
      "name": "OwnerAdded",
      "type": "event"
    },
    {
      "inputs": [
        {
          "internalType": "address",
          "name": "nftContract",
          "type": "address"
        },
        {
          "internalType": "uint256",
          "name": "tokenId",
          "type": "uint256"
        }
      ],
      "name": "addNFTToMarket",
      "outputs": [],
      "stateMutability": "nonpayable",
      "type": "function"
    },
    {
      "inputs": [
        {
          "internalType": "uint256",
          "name": "tokenId",
          "type": "uint256"
        }
      ],
      "name": "addOwner",
      "outputs": [],
      "stateMutability": "payable",
      "type": "function"
    },
    {
      "inputs": [
        {
          "internalType": "address",
          "name": "nftContract",
          "type": "address"
        },
        {
          "internalType": "uint256",
          "name": "tokenId",
          "type": "uint256"
        }
      ],
      "name": "sellNFT",
      "outputs": [],
      "stateMutability": "payable",
      "type": "function"
    }
  ],
  "bytecode": "0x608060405234801561001057600080fd5b506109aa806100206000396000f3fe6080604052600436106100345760003560e01c80634c00188314610039578063544807ac14610062578063d5356ffa1461007e575b600080fd5b34801561004557600080fd5b50610060600480360381019061005b919061058c565b61009a565b005b61007c6004803603810190610077919061058c565b6101fb565b005b610098600480360381019061009391906105c8565b6103f7565b005b336002600083815260200190815260200160002060006101000a81548173ffffffffffffffffffffffffffffffffffffffff021916908373ffffffffffffffffffffffffffffffffffffffff160217905550600080828152602001908152602001600020339080600181540180825580915050600190039060005260206000200160009091909190916101000a81548173ffffffffffffffffffffffffffffffffffffffff021916908373ffffffffffffffffffffffffffffffffffffffff1602179055506001600082815260200190815260200160002060008154809291906101839061087f565b91905055508173ffffffffffffffffffffffffffffffffffffffff166323b872dd3330846040518463ffffffff1660e01b81526004016101c59392919061069b565b600060405180830381600087803b1580156101df57600080fd5b505af11580156101f3573d6000803e3d6000fd5b505050505050565b600080600083815260200190815260200160002080548060200260200160405190810160405280929190818152602001828054801561028f57602002820191906000526020600020905b8160009054906101000a900473ffffffffffffffffffffffffffffffffffffffff1673ffffffffffffffffffffffffffffffffffffffff1681526020019060010190808311610245575b5050505050905060006001806000858152602001908152602001600020546102b7919061074e565b9050600081346102c791906107a4565b905060005b6001836102d991906107d5565b81101561038057600084828151811061031b577f4e487b7100000000000000000000000000000000000000000000000000000000600052603260045260246000fd5b602002602001015190508073ffffffffffffffffffffffffffffffffffffffff166108fc849081150290604051600060405180830381858888f1935050505015801561036b573d6000803e3d6000fd5b505080806103789061087f565b9150506102cc565b508473ffffffffffffffffffffffffffffffffffffffff166323b872dd3033876040518463ffffffff1660e01b81526004016103be9392919061069b565b600060405180830381600087803b1580156103d857600080fd5b505af11580156103ec573d6000803e3d6000fd5b505050505050505050565b60006002600083815260200190815260200160002060009054906101000a900473ffffffffffffffffffffffffffffffffffffffff1690508073ffffffffffffffffffffffffffffffffffffffff166108fc349081150290604051600060405180830381858888f19350505050158015610475573d6000803e3d6000fd5b50600080838152602001908152602001600020339080600181540180825580915050600190039060005260206000200160009091909190916101000a81548173ffffffffffffffffffffffffffffffffffffffff021916908373ffffffffffffffffffffffffffffffffffffffff16021790555060016000838152602001908152602001600020600081548092919061050d9061087f565b91905055507f275b01b1807d7f1be6037d8d26b8b7d4c078250dc2c2494519f2b656f7dee0ab3383600080868152602001908152602001600020604051610556939291906106d2565b60405180910390a15050565b60008135905061057181610946565b92915050565b6000813590506105868161095d565b92915050565b6000806040838503121561059f57600080fd5b60006105ad85828601610562565b92505060206105be85828601610577565b9150509250929050565b6000602082840312156105da57600080fd5b60006105e884828501610577565b91505092915050565b60006105fd8383610609565b60208301905092915050565b61061281610829565b82525050565b61062181610829565b82525050565b600061063282610725565b61063c818561073d565b935061064783610710565b8060005b8381101561067f5761065c82610926565b61066688826105f1565b975061067183610730565b92505060018101905061064b565b5085935050505092915050565b6106958161085b565b82525050565b60006060820190506106b06000830186610618565b6106bd6020830185610618565b6106ca604083018461068c565b949350505050565b60006060820190506106e76000830186610618565b6106f4602083018561068c565b81810360408301526107068184610627565b9050949350505050565b60008190508160005260206000209050919050565b600081549050919050565b6000600182019050919050565b600082825260208201905092915050565b60006107598261085b565b91506107648361085b565b9250827fffffffffffffffffffffffffffffffffffffffffffffffffffffffffffffffff03821115610799576107986108c8565b5b828201905092915050565b60006107af8261085b565b91506107ba8361085b565b9250826107ca576107c96108f7565b5b828204905092915050565b60006107e08261085b565b91506107eb8361085b565b9250828210156107fe576107fd6108c8565b5b828203905092915050565b600073ffffffffffffffffffffffffffffffffffffffff82169050919050565b60006108348261083b565b9050919050565b600073ffffffffffffffffffffffffffffffffffffffff82169050919050565b6000819050919050565b600061087861087383610939565b610809565b9050919050565b600061088a8261085b565b91507fffffffffffffffffffffffffffffffffffffffffffffffffffffffffffffffff8214156108bd576108bc6108c8565b5b600182019050919050565b7f4e487b7100000000000000000000000000000000000000000000000000000000600052601160045260246000fd5b7f4e487b7100000000000000000000000000000000000000000000000000000000600052601260045260246000fd5b60006109328254610865565b9050919050565b60008160001c9050919050565b61094f81610829565b811461095a57600080fd5b50565b6109668161085b565b811461097157600080fd5b5056fea26469706673582212202ed324341a6f79199a62418e3577ec6b3da95e53f6086e726f6487ad1bedb72364736f6c63430008000033",
  "linkReferences": {},
  "deployedLinkReferences": {}
}