{
  "_format": "hh-sol-artifact-1",
  "contractName": "NFTMarketplace",
  "sourceName": "contracts/NFTMarketplace.sol",
  "abi": [
    {
      "anonymous": false,
      "inputs": [
        {
          "indexed": true,
          "internalType": "uint256",
          "name": "itemId",
          "type": "uint256"
        },
        {
          "indexed": true,
          "internalType": "address",
          "name": "nftContract",
          "type": "address"
        },
        {
          "indexed": true,
          "internalType": "uint256",
          "name": "tokenId",
          "type": "uint256"
        },
        {
          "indexed": false,
          "internalType": "address",
          "name": "seller",
          "type": "address"
        },
        {
          "indexed": false,
          "internalType": "address",
          "name": "owner",
          "type": "address"
        },
        {
          "indexed": false,
          "internalType": "uint256",
          "name": "price",
          "type": "uint256"
        },
        {
          "indexed": false,
          "internalType": "uint256",
          "name": "distributionPrice",
          "type": "uint256"
        },
        {
          "indexed": false,
          "internalType": "bool",
          "name": "sold",
          "type": "bool"
        }
      ],
      "name": "ItemCreated",
      "type": "event"
    },
    {
      "anonymous": false,
      "inputs": [
        {
          "indexed": false,
          "internalType": "address",
          "name": "owner",
          "type": "address"
        },
        {
          "indexed": false,
          "internalType": "uint256",
          "name": "tokenId",
          "type": "uint256"
        },
        {
          "indexed": false,
          "internalType": "address[]",
          "name": "owners",
          "type": "address[]"
        }
      ],
      "name": "OwnerAdded",
      "type": "event"
    },
    {
      "inputs": [
        {
          "internalType": "address",
          "name": "nftContract",
          "type": "address"
        },
        {
          "internalType": "uint256",
          "name": "tokenId",
          "type": "uint256"
        }
      ],
      "name": "addNFTToMarket",
      "outputs": [],
      "stateMutability": "nonpayable",
      "type": "function"
    },
    {
      "inputs": [
        {
          "internalType": "uint256",
          "name": "tokenId",
          "type": "uint256"
        }
      ],
      "name": "addOwner",
      "outputs": [],
      "stateMutability": "payable",
      "type": "function"
    },
    {
      "inputs": [
        {
          "internalType": "address",
          "name": "nftContract",
          "type": "address"
        },
        {
          "internalType": "uint256",
          "name": "tokenId",
          "type": "uint256"
        },
        {
          "internalType": "uint256",
          "name": "distributionPrice",
          "type": "uint256"
        },
        {
          "internalType": "uint256",
          "name": "price",
          "type": "uint256"
        }
      ],
      "name": "createItem",
      "outputs": [],
      "stateMutability": "payable",
      "type": "function"
    },
    {
      "inputs": [],
      "name": "fetchItems",
      "outputs": [
        {
          "components": [
            {
              "internalType": "uint256",
              "name": "itemId",
              "type": "uint256"
            },
            {
              "internalType": "address",
              "name": "NFTContract",
              "type": "address"
            },
            {
              "internalType": "uint256",
              "name": "tokenId",
              "type": "uint256"
            },
            {
              "internalType": "address payable",
              "name": "owner",
              "type": "address"
            },
            {
              "internalType": "address payable",
              "name": "seller",
              "type": "address"
            },
            {
              "internalType": "uint256",
              "name": "price",
              "type": "uint256"
            },
            {
              "internalType": "uint256",
              "name": "distributionPrice",
              "type": "uint256"
            },
            {
              "internalType": "bool",
              "name": "sold",
              "type": "bool"
            }
          ],
          "internalType": "struct NFTMarketplace.Item[]",
          "name": "",
          "type": "tuple[]"
        }
      ],
      "stateMutability": "view",
      "type": "function"
    },
    {
      "inputs": [],
      "name": "fetchItemsCreated",
      "outputs": [
        {
          "components": [
            {
              "internalType": "uint256",
              "name": "itemId",
              "type": "uint256"
            },
            {
              "internalType": "address",
              "name": "NFTContract",
              "type": "address"
            },
            {
              "internalType": "uint256",
              "name": "tokenId",
              "type": "uint256"
            },
            {
              "internalType": "address payable",
              "name": "owner",
              "type": "address"
            },
            {
              "internalType": "address payable",
              "name": "seller",
              "type": "address"
            },
            {
              "internalType": "uint256",
              "name": "price",
              "type": "uint256"
            },
            {
              "internalType": "uint256",
              "name": "distributionPrice",
              "type": "uint256"
            },
            {
              "internalType": "bool",
              "name": "sold",
              "type": "bool"
            }
          ],
          "internalType": "struct NFTMarketplace.Item[]",
          "name": "",
          "type": "tuple[]"
        }
      ],
      "stateMutability": "view",
      "type": "function"
    },
    {
      "inputs": [],
      "name": "fetchNFTs",
      "outputs": [
        {
          "components": [
            {
              "internalType": "uint256",
              "name": "itemId",
              "type": "uint256"
            },
            {
              "internalType": "address",
              "name": "NFTContract",
              "type": "address"
            },
            {
              "internalType": "uint256",
              "name": "tokenId",
              "type": "uint256"
            },
            {
              "internalType": "address payable",
              "name": "owner",
              "type": "address"
            },
            {
              "internalType": "address payable",
              "name": "seller",
              "type": "address"
            },
            {
              "internalType": "uint256",
              "name": "price",
              "type": "uint256"
            },
            {
              "internalType": "uint256",
              "name": "distributionPrice",
              "type": "uint256"
            },
            {
              "internalType": "bool",
              "name": "sold",
              "type": "bool"
            }
          ],
          "internalType": "struct NFTMarketplace.Item[]",
          "name": "",
          "type": "tuple[]"
        }
      ],
      "stateMutability": "view",
      "type": "function"
    },
    {
      "inputs": [
        {
          "internalType": "uint256",
          "name": "itemId",
          "type": "uint256"
        }
      ],
      "name": "getNFTFraction",
      "outputs": [],
      "stateMutability": "payable",
      "type": "function"
    },
    {
      "inputs": [
        {
          "internalType": "address",
          "name": "nftContract",
          "type": "address"
        },
        {
          "internalType": "uint256",
          "name": "itemId",
          "type": "uint256"
        }
      ],
      "name": "sellItem",
      "outputs": [],
      "stateMutability": "payable",
      "type": "function"
    },
    {
      "inputs": [
        {
          "internalType": "address",
          "name": "nftContract",
          "type": "address"
        },
        {
          "internalType": "uint256",
          "name": "tokenId",
          "type": "uint256"
        }
      ],
      "name": "sellNFT",
      "outputs": [],
      "stateMutability": "payable",
      "type": "function"
    }
  ],
  "bytecode": "0x608060405234801561001057600080fd5b506001600381905550611fbb806100286000396000f3fe6080604052600436106100865760003560e01c80638003e362116100595780638003e36214610117578063ad78ba7b14610133578063d5356ffa1461015e578063f064c32e1461017a578063f6176e64146101a557610086565b8063096c5e1a1461008b5780634c001883146100a7578063544807ac146100d057806378f04baf146100ec575b600080fd5b6100a560048036038101906100a091906116b6565b6101c1565b005b3480156100b357600080fd5b506100ce60048036038101906100c991906116b6565b61032d565b005b6100ea60048036038101906100e591906116b6565b61048e565b005b3480156100f857600080fd5b5061010161068a565b60405161010e9190611bf7565b60405180910390f35b610131600480360381019061012c9190611755565b610a27565b005b34801561013f57600080fd5b50610148610af7565b6040516101559190611bf7565b60405180910390f35b61017860048036038101906101739190611755565b610dc5565b005b34801561018657600080fd5b5061018f610f30565b60405161019c9190611bf7565b60405180910390f35b6101bf60048036038101906101ba91906116f2565b6112cd565b005b60026003541415610207576040517f08c379a00000000000000000000000000000000000000000000000000000000081526004016101fe90611c99565b60405180910390fd5b6002600381905550600060076000838152602001908152602001600020600501549050600060076000848152602001908152602001600020600201549050813414610287576040517f08c379a000000000000000000000000000000000000000000000000000000000815260040161027e90611c79565b60405180910390fd5b610291848261048e565b336007600085815260200190815260200160002060030160006101000a81548173ffffffffffffffffffffffffffffffffffffffff021916908373ffffffffffffffffffffffffffffffffffffffff16021790555060016007600085815260200190815260200160002060070160006101000a81548160ff02191690831515021790555061031f60056115df565b505060016003819055505050565b336002600083815260200190815260200160002060006101000a81548173ffffffffffffffffffffffffffffffffffffffff021916908373ffffffffffffffffffffffffffffffffffffffff160217905550600080828152602001908152602001600020339080600181540180825580915050600190039060005260206000200160009091909190916101000a81548173ffffffffffffffffffffffffffffffffffffffff021916908373ffffffffffffffffffffffffffffffffffffffff16021790555060016000828152602001908152602001600020600081548092919061041690611e90565b91905055508173ffffffffffffffffffffffffffffffffffffffff166323b872dd3330846040518463ffffffff1660e01b815260040161045893929190611b2f565b600060405180830381600087803b15801561047257600080fd5b505af1158015610486573d6000803e3d6000fd5b505050505050565b600080600083815260200190815260200160002080548060200260200160405190810160405280929190818152602001828054801561052257602002820191906000526020600020905b8160009054906101000a900473ffffffffffffffffffffffffffffffffffffffff1673ffffffffffffffffffffffffffffffffffffffff16815260200190600101908083116104d8575b50505050509050600060018060008581526020019081526020016000205461054a9190611d41565b90506000813461055a9190611d97565b905060005b60018361056c9190611dc8565b8110156106135760008482815181106105ae577f4e487b7100000000000000000000000000000000000000000000000000000000600052603260045260246000fd5b602002602001015190508073ffffffffffffffffffffffffffffffffffffffff166108fc849081150290604051600060405180830381858888f193505050501580156105fe573d6000803e3d6000fd5b5050808061060b90611e90565b91505061055f565b508473ffffffffffffffffffffffffffffffffffffffff166323b872dd3033876040518463ffffffff1660e01b815260040161065193929190611b2f565b600060405180830381600087803b15801561066b57600080fd5b505af115801561067f573d6000803e3d6000fd5b505050505050505050565b6060600061069860046115f5565b905060008060005b83811015610740573373ffffffffffffffffffffffffffffffffffffffff16600760006001846106d09190611d41565b815260200190815260200160002060030160009054906101000a900473ffffffffffffffffffffffffffffffffffffffff1673ffffffffffffffffffffffffffffffffffffffff16141561072d57828061072990611e90565b9350505b808061073890611e90565b9150506106a0565b5060008267ffffffffffffffff811115610783577f4e487b7100000000000000000000000000000000000000000000000000000000600052604160045260246000fd5b6040519080825280602002602001820160405280156107bc57816020015b6107a9611603565b8152602001906001900390816107a15790505b50905060005b84811015610a1c573373ffffffffffffffffffffffffffffffffffffffff16600760006001846107f29190611d41565b815260200190815260200160002060030160009054906101000a900473ffffffffffffffffffffffffffffffffffffffff1673ffffffffffffffffffffffffffffffffffffffff161415610a09576000600760006001846108539190611d41565b815260200190815260200160002090508060405180610100016040529081600082015481526020016001820160009054906101000a900473ffffffffffffffffffffffffffffffffffffffff1673ffffffffffffffffffffffffffffffffffffffff1673ffffffffffffffffffffffffffffffffffffffff168152602001600282015481526020016003820160009054906101000a900473ffffffffffffffffffffffffffffffffffffffff1673ffffffffffffffffffffffffffffffffffffffff1673ffffffffffffffffffffffffffffffffffffffff1681526020016004820160009054906101000a900473ffffffffffffffffffffffffffffffffffffffff1673ffffffffffffffffffffffffffffffffffffffff1673ffffffffffffffffffffffffffffffffffffffff16815260200160058201548152602001600682015481526020016007820160009054906101000a900460ff1615151515815250508385815181106109ee577f4e487b7100000000000000000000000000000000000000000000000000000000600052603260045260246000fd5b60200260200101819052508380610a0490611e90565b945050505b8080610a1490611e90565b9150506107c2565b508094505050505090565b60026003541415610a6d576040517f08c379a0000000000000000000000000000000000000000000000000000000008152600401610a6490611c99565b60405180910390fd5b600260038190555034600760008381526020019081526020016000206006015414610acd576040517f08c379a0000000000000000000000000000000000000000000000000000000008152600401610ac490611c39565b60405180910390fd5b610aec6007600083815260200190815260200160002060020154610dc5565b600160038190555050565b60606000610b0560046115f5565b90506000610b1360056115f5565b82610b1e9190611dc8565b90506000808267ffffffffffffffff811115610b63577f4e487b7100000000000000000000000000000000000000000000000000000000600052604160045260246000fd5b604051908082528060200260200182016040528015610b9c57816020015b610b89611603565b815260200190600190039081610b815790505b50905060005b84811015610dba5760076000600183610bbb9190611d41565b815260200190815260200160002060070160009054906101000a900460ff16610da757600060076000600184610bf19190611d41565b815260200190815260200160002090508060405180610100016040529081600082015481526020016001820160009054906101000a900473ffffffffffffffffffffffffffffffffffffffff1673ffffffffffffffffffffffffffffffffffffffff1673ffffffffffffffffffffffffffffffffffffffff168152602001600282015481526020016003820160009054906101000a900473ffffffffffffffffffffffffffffffffffffffff1673ffffffffffffffffffffffffffffffffffffffff1673ffffffffffffffffffffffffffffffffffffffff1681526020016004820160009054906101000a900473ffffffffffffffffffffffffffffffffffffffff1673ffffffffffffffffffffffffffffffffffffffff1673ffffffffffffffffffffffffffffffffffffffff16815260200160058201548152602001600682015481526020016007820160009054906101000a900460ff161515151581525050838581518110610d8c577f4e487b7100000000000000000000000000000000000000000000000000000000600052603260045260246000fd5b60200260200101819052508380610da290611e90565b945050505b8080610db290611e90565b915050610ba2565b508094505050505090565b60006002600083815260200190815260200160002060009054906101000a900473ffffffffffffffffffffffffffffffffffffffff1690508073ffffffffffffffffffffffffffffffffffffffff166108fc349081150290604051600060405180830381858888f19350505050158015610e43573d6000803e3d6000fd5b50600080838152602001908152602001600020339080600181540180825580915050600190039060005260206000200160009091909190916101000a81548173ffffffffffffffffffffffffffffffffffffffff021916908373ffffffffffffffffffffffffffffffffffffffff160217905550600160008381526020019081526020016000206000815480929190610edb90611e90565b91905055507f275b01b1807d7f1be6037d8d26b8b7d4c078250dc2c2494519f2b656f7dee0ab3383600080868152602001908152602001600020604051610f2493929190611bb9565b60405180910390a15050565b60606000610f3e60046115f5565b905060008060005b83811015610fe6573373ffffffffffffffffffffffffffffffffffffffff1660076000600184610f769190611d41565b815260200190815260200160002060040160009054906101000a900473ffffffffffffffffffffffffffffffffffffffff1673ffffffffffffffffffffffffffffffffffffffff161415610fd3578280610fcf90611e90565b9350505b8080610fde90611e90565b915050610f46565b5060008267ffffffffffffffff811115611029577f4e487b7100000000000000000000000000000000000000000000000000000000600052604160045260246000fd5b60405190808252806020026020018201604052801561106257816020015b61104f611603565b8152602001906001900390816110475790505b50905060005b848110156112c2573373ffffffffffffffffffffffffffffffffffffffff16600760006001846110989190611d41565b815260200190815260200160002060040160009054906101000a900473ffffffffffffffffffffffffffffffffffffffff1673ffffffffffffffffffffffffffffffffffffffff1614156112af576000600760006001846110f99190611d41565b815260200190815260200160002090508060405180610100016040529081600082015481526020016001820160009054906101000a900473ffffffffffffffffffffffffffffffffffffffff1673ffffffffffffffffffffffffffffffffffffffff1673ffffffffffffffffffffffffffffffffffffffff168152602001600282015481526020016003820160009054906101000a900473ffffffffffffffffffffffffffffffffffffffff1673ffffffffffffffffffffffffffffffffffffffff1673ffffffffffffffffffffffffffffffffffffffff1681526020016004820160009054906101000a900473ffffffffffffffffffffffffffffffffffffffff1673ffffffffffffffffffffffffffffffffffffffff1673ffffffffffffffffffffffffffffffffffffffff16815260200160058201548152602001600682015481526020016007820160009054906101000a900460ff161515151581525050838581518110611294577f4e487b7100000000000000000000000000000000000000000000000000000000600052603260045260246000fd5b602002602001018190525083806112aa90611e90565b945050505b80806112ba90611e90565b915050611068565b508094505050505090565b60026003541415611313576040517f08c379a000000000000000000000000000000000000000000000000000000000815260040161130a90611c99565b60405180910390fd5b60026003819055506000811161135e576040517f08c379a000000000000000000000000000000000000000000000000000000000815260040161135590611c59565b60405180910390fd5b600082116113a1576040517f08c379a000000000000000000000000000000000000000000000000000000000815260040161139890611c19565b60405180910390fd5b6113ab60046115df565b60006113b760046115f5565b90506040518061010001604052808281526020018673ffffffffffffffffffffffffffffffffffffffff1681526020018581526020013373ffffffffffffffffffffffffffffffffffffffff168152602001600073ffffffffffffffffffffffffffffffffffffffff16815260200183815260200184815260200160001515815250600760008381526020019081526020016000206000820151816000015560208201518160010160006101000a81548173ffffffffffffffffffffffffffffffffffffffff021916908373ffffffffffffffffffffffffffffffffffffffff1602179055506040820151816002015560608201518160030160006101000a81548173ffffffffffffffffffffffffffffffffffffffff021916908373ffffffffffffffffffffffffffffffffffffffff16021790555060808201518160040160006101000a81548173ffffffffffffffffffffffffffffffffffffffff021916908373ffffffffffffffffffffffffffffffffffffffff16021790555060a0820151816005015560c0820151816006015560e08201518160070160006101000a81548160ff021916908315150217905550905050611576858561032d565b838573ffffffffffffffffffffffffffffffffffffffff16827f978c4df9619213f3affab3fac0414c96e1fe1471bf25bd2ce0f9e816e1b934a4336000878960006040516115c8959493929190611b66565b60405180910390a450600160038190555050505050565b6001816000016000828254019250508190555050565b600081600001549050919050565b60405180610100016040528060008152602001600073ffffffffffffffffffffffffffffffffffffffff16815260200160008152602001600073ffffffffffffffffffffffffffffffffffffffff168152602001600073ffffffffffffffffffffffffffffffffffffffff16815260200160008152602001600081526020016000151581525090565b60008135905061169b81611f57565b92915050565b6000813590506116b081611f6e565b92915050565b600080604083850312156116c957600080fd5b60006116d78582860161168c565b92505060206116e8858286016116a1565b9150509250929050565b6000806000806080858703121561170857600080fd5b60006117168782880161168c565b9450506020611727878288016116a1565b9350506040611738878288016116a1565b9250506060611749878288016116a1565b91505092959194509250565b60006020828403121561176757600080fd5b6000611775848285016116a1565b91505092915050565b600061178a83836117be565b60208301905092915050565b60006117a28383611a6f565b6101008301905092915050565b6117b881611e2e565b82525050565b6117c781611e1c565b82525050565b6117d681611e1c565b82525050565b60006117e782611cde565b6117f18185611d0e565b93506117fc83611cb9565b8060005b838110156118345761181182611f37565b61181b888261177e565b975061182683611cf4565b925050600181019050611800565b5085935050505092915050565b600061184c82611ce9565b6118568185611d1f565b935061186183611cce565b8060005b838110156118925781516118798882611796565b975061188483611d01565b925050600181019050611865565b5085935050505092915050565b6118a881611e40565b82525050565b6118b781611e40565b82525050565b60006118ca602a83611d30565b91507f446973747269627574696f6e2050726963652073686f756c642061746c65617360008301527f74206265203120776569000000000000000000000000000000000000000000006020830152604082019050919050565b6000611930603183611d30565b91507f506c65617365206d617463682074686520616d6f756e7420726571756972656460008301527f20746f20676574207468652073686172650000000000000000000000000000006020830152604082019050919050565b6000611996601d83611d30565b91507f50726963652073686f756c642061746c656173742062652031207765690000006000830152602082019050919050565b60006119d6602e83611d30565b91507f50726963652073686f756c6420626520657175616c20746f207468652070726960008301527f6365206f6620746865206974656d0000000000000000000000000000000000006020830152604082019050919050565b6000611a3c601f83611d30565b91507f5265656e7472616e637947756172643a207265656e7472616e742063616c6c006000830152602082019050919050565b61010082016000820151611a866000850182611b11565b506020820151611a9960208501826117be565b506040820151611aac6040850182611b11565b506060820151611abf60608501826117af565b506080820151611ad260808501826117af565b5060a0820151611ae560a0850182611b11565b5060c0820151611af860c0850182611b11565b5060e0820151611b0b60e085018261189f565b50505050565b611b1a81611e6c565b82525050565b611b2981611e6c565b82525050565b6000606082019050611b4460008301866117cd565b611b5160208301856117cd565b611b5e6040830184611b20565b949350505050565b600060a082019050611b7b60008301886117cd565b611b8860208301876117cd565b611b956040830186611b20565b611ba26060830185611b20565b611baf60808301846118ae565b9695505050505050565b6000606082019050611bce60008301866117cd565b611bdb6020830185611b20565b8181036040830152611bed81846117dc565b9050949350505050565b60006020820190508181036000830152611c118184611841565b905092915050565b60006020820190508181036000830152611c32816118bd565b9050919050565b60006020820190508181036000830152611c5281611923565b9050919050565b60006020820190508181036000830152611c7281611989565b9050919050565b60006020820190508181036000830152611c92816119c9565b9050919050565b60006020820190508181036000830152611cb281611a2f565b9050919050565b60008190508160005260206000209050919050565b6000819050602082019050919050565b600081549050919050565b600081519050919050565b6000600182019050919050565b6000602082019050919050565b600082825260208201905092915050565b600082825260208201905092915050565b600082825260208201905092915050565b6000611d4c82611e6c565b9150611d5783611e6c565b9250827fffffffffffffffffffffffffffffffffffffffffffffffffffffffffffffffff03821115611d8c57611d8b611ed9565b5b828201905092915050565b6000611da282611e6c565b9150611dad83611e6c565b925082611dbd57611dbc611f08565b5b828204905092915050565b6000611dd382611e6c565b9150611dde83611e6c565b925082821015611df157611df0611ed9565b5b828203905092915050565b600073ffffffffffffffffffffffffffffffffffffffff82169050919050565b6000611e2782611e4c565b9050919050565b6000611e3982611e4c565b9050919050565b60008115159050919050565b600073ffffffffffffffffffffffffffffffffffffffff82169050919050565b6000819050919050565b6000611e89611e8483611f4a565b611dfc565b9050919050565b6000611e9b82611e6c565b91507fffffffffffffffffffffffffffffffffffffffffffffffffffffffffffffffff821415611ece57611ecd611ed9565b5b600182019050919050565b7f4e487b7100000000000000000000000000000000000000000000000000000000600052601160045260246000fd5b7f4e487b7100000000000000000000000000000000000000000000000000000000600052601260045260246000fd5b6000611f438254611e76565b9050919050565b60008160001c9050919050565b611f6081611e1c565b8114611f6b57600080fd5b50565b611f7781611e6c565b8114611f8257600080fd5b5056fea264697066735822122065721de138685c4f077b7f3a188c435869f65784c0efffb3af0f034392a917ec64736f6c63430008000033",
  "linkReferences": {},
  "deployedLinkReferences": {}
}