{
  "_format": "hh-sol-artifact-1",
  "contractName": "NFTFractionsManager",
  "sourceName": "contracts/NFTFractionsManager.sol",
  "abi": [
    {
      "anonymous": false,
      "inputs": [
        {
          "indexed": false,
          "internalType": "address",
          "name": "owner",
          "type": "address"
        },
        {
          "indexed": false,
          "internalType": "uint256",
          "name": "tokenId",
          "type": "uint256"
        },
        {
          "indexed": false,
          "internalType": "address[]",
          "name": "owners",
          "type": "address[]"
        }
      ],
      "name": "OwnerAdded",
      "type": "event"
    },
    {
      "inputs": [
        {
          "internalType": "address",
          "name": "nftContract",
          "type": "address"
        },
        {
          "internalType": "uint256",
          "name": "tokenId",
          "type": "uint256"
        }
      ],
      "name": "addNFTToMarket",
      "outputs": [],
      "stateMutability": "nonpayable",
      "type": "function"
    },
    {
      "inputs": [
        {
          "internalType": "uint256",
          "name": "tokenId",
          "type": "uint256"
        }
      ],
      "name": "addOwner",
      "outputs": [],
      "stateMutability": "payable",
      "type": "function"
    },
    {
      "inputs": [
        {
          "internalType": "uint256",
          "name": "tokenId",
          "type": "uint256"
        }
      ],
      "name": "getOwnerCount",
      "outputs": [
        {
          "internalType": "uint256",
          "name": "",
          "type": "uint256"
        }
      ],
      "stateMutability": "view",
      "type": "function"
    },
    {
      "inputs": [
        {
          "internalType": "uint256",
          "name": "tokenId",
          "type": "uint256"
        }
      ],
      "name": "getOwners",
      "outputs": [
        {
          "internalType": "address[]",
          "name": "",
          "type": "address[]"
        }
      ],
      "stateMutability": "view",
      "type": "function"
    },
    {
      "inputs": [
        {
          "internalType": "address",
          "name": "nftContract",
          "type": "address"
        },
        {
          "internalType": "uint256",
          "name": "tokenId",
          "type": "uint256"
        }
      ],
      "name": "sellNFT",
      "outputs": [],
      "stateMutability": "payable",
      "type": "function"
    }
  ],
  "bytecode": "0x608060405234801561001057600080fd5b50610c9a806100206000396000f3fe60806040526004361061004a5760003560e01c806313f66c9a1461004f5780634c0018831461008c578063544807ac146100b5578063d5356ffa146100d1578063ee4525d5146100ed575b600080fd5b34801561005b57600080fd5b50610076600480360381019061007191906107f5565b61012a565b60405161008391906109bd565b60405180910390f35b34801561009857600080fd5b506100b360048036038101906100ae91906107b9565b610147565b005b6100cf60048036038101906100ca91906107b9565b6102a8565b005b6100eb60048036038101906100e691906107f5565b610584565b005b3480156100f957600080fd5b50610114600480360381019061010f91906107f5565b6106ef565b604051610121919061099b565b60405180910390f35b600060016000838152602001908152602001600020549050919050565b336002600083815260200190815260200160002060006101000a81548173ffffffffffffffffffffffffffffffffffffffff021916908373ffffffffffffffffffffffffffffffffffffffff160217905550600080828152602001908152602001600020339080600181540180825580915050600190039060005260206000200160009091909190916101000a81548173ffffffffffffffffffffffffffffffffffffffff021916908373ffffffffffffffffffffffffffffffffffffffff16021790555060016000828152602001908152602001600020600081548092919061023090610b6f565b91905055508173ffffffffffffffffffffffffffffffffffffffff166323b872dd3330846040518463ffffffff1660e01b815260040161027293929190610926565b600060405180830381600087803b15801561028c57600080fd5b505af11580156102a0573d6000803e3d6000fd5b505050505050565b600080600083815260200190815260200160002080548060200260200160405190810160405280929190818152602001828054801561033c57602002820191906000526020600020905b8160009054906101000a900473ffffffffffffffffffffffffffffffffffffffff1673ffffffffffffffffffffffffffffffffffffffff16815260200190600101908083116102f2575b5050505050905060006001806000858152602001908152602001600020546103649190610a3e565b9050600081346103749190610a94565b905060005b6001836103869190610ac5565b8110156104a25760008482815181106103c8577f4e487b7100000000000000000000000000000000000000000000000000000000600052603260045260246000fd5b602002602001015190508073ffffffffffffffffffffffffffffffffffffffff166108fc849081150290604051600060405180830381858888f19350505050158015610418573d6000803e3d6000fd5b506000858381518110610454577f4e487b7100000000000000000000000000000000000000000000000000000000600052603260045260246000fd5b602002602001019073ffffffffffffffffffffffffffffffffffffffff16908173ffffffffffffffffffffffffffffffffffffffff168152505050808061049a90610b6f565b915050610379565b508473ffffffffffffffffffffffffffffffffffffffff166323b872dd3033876040518463ffffffff1660e01b81526004016104e093929190610926565b600060405180830381600087803b1580156104fa57600080fd5b505af115801561050e573d6000803e3d6000fd5b5050505060006001600086815260200190815260200160002081905550336002600086815260200190815260200160002060006101000a81548173ffffffffffffffffffffffffffffffffffffffff021916908373ffffffffffffffffffffffffffffffffffffffff1602179055505050505050565b60006002600083815260200190815260200160002060009054906101000a900473ffffffffffffffffffffffffffffffffffffffff1690508073ffffffffffffffffffffffffffffffffffffffff166108fc349081150290604051600060405180830381858888f19350505050158015610602573d6000803e3d6000fd5b50600080838152602001908152602001600020339080600181540180825580915050600190039060005260206000200160009091909190916101000a81548173ffffffffffffffffffffffffffffffffffffffff021916908373ffffffffffffffffffffffffffffffffffffffff16021790555060016000838152602001908152602001600020600081548092919061069a90610b6f565b91905055507f275b01b1807d7f1be6037d8d26b8b7d4c078250dc2c2494519f2b656f7dee0ab33836000808681526020019081526020016000206040516106e39392919061095d565b60405180910390a15050565b606060008083815260200190815260200160002080548060200260200160405190810160405280929190818152602001828054801561078357602002820191906000526020600020905b8160009054906101000a900473ffffffffffffffffffffffffffffffffffffffff1673ffffffffffffffffffffffffffffffffffffffff1681526020019060010190808311610739575b50505050509050919050565b60008135905061079e81610c36565b92915050565b6000813590506107b381610c4d565b92915050565b600080604083850312156107cc57600080fd5b60006107da8582860161078f565b92505060206107eb858286016107a4565b9150509250929050565b60006020828403121561080757600080fd5b6000610815848285016107a4565b91505092915050565b600061082a8383610836565b60208301905092915050565b61083f81610b19565b82525050565b61084e81610b19565b82525050565b600061085f826109fd565b6108698185610a2d565b9350610874836109d8565b8060005b838110156108a557815161088c888261081e565b975061089783610a13565b925050600181019050610878565b5085935050505092915050565b60006108bd82610a08565b6108c78185610a2d565b93506108d2836109e8565b8060005b8381101561090a576108e782610c16565b6108f1888261081e565b97506108fc83610a20565b9250506001810190506108d6565b5085935050505092915050565b61092081610b4b565b82525050565b600060608201905061093b6000830186610845565b6109486020830185610845565b6109556040830184610917565b949350505050565b60006060820190506109726000830186610845565b61097f6020830185610917565b818103604083015261099181846108b2565b9050949350505050565b600060208201905081810360008301526109b58184610854565b905092915050565b60006020820190506109d26000830184610917565b92915050565b6000819050602082019050919050565b60008190508160005260206000209050919050565b600081519050919050565b600081549050919050565b6000602082019050919050565b6000600182019050919050565b600082825260208201905092915050565b6000610a4982610b4b565b9150610a5483610b4b565b9250827fffffffffffffffffffffffffffffffffffffffffffffffffffffffffffffffff03821115610a8957610a88610bb8565b5b828201905092915050565b6000610a9f82610b4b565b9150610aaa83610b4b565b925082610aba57610ab9610be7565b5b828204905092915050565b6000610ad082610b4b565b9150610adb83610b4b565b925082821015610aee57610aed610bb8565b5b828203905092915050565b600073ffffffffffffffffffffffffffffffffffffffff82169050919050565b6000610b2482610b2b565b9050919050565b600073ffffffffffffffffffffffffffffffffffffffff82169050919050565b6000819050919050565b6000610b68610b6383610c29565b610af9565b9050919050565b6000610b7a82610b4b565b91507fffffffffffffffffffffffffffffffffffffffffffffffffffffffffffffffff821415610bad57610bac610bb8565b5b600182019050919050565b7f4e487b7100000000000000000000000000000000000000000000000000000000600052601160045260246000fd5b7f4e487b7100000000000000000000000000000000000000000000000000000000600052601260045260246000fd5b6000610c228254610b55565b9050919050565b60008160001c9050919050565b610c3f81610b19565b8114610c4a57600080fd5b50565b610c5681610b4b565b8114610c6157600080fd5b5056fea264697066735822122057ecd39e59bcb6052192e00625bc21a18f13b93fbdb06238e0bfff924511b46364736f6c63430008000033",
  "linkReferences": {},
  "deployedLinkReferences": {}
}